{
  "_format": "hh-sol-artifact-1",
  "contractName": "Marketplace",
  "sourceName": "src/backend/contracts/Marketplace.sol",
  "abi": [
    {
      "inputs": [
        {
          "internalType": "uint256",
          "name": "_feePercent",
          "type": "uint256"
        }
      ],
      "stateMutability": "nonpayable",
      "type": "constructor"
    },
    {
      "anonymous": false,
      "inputs": [
        {
          "indexed": false,
          "internalType": "uint256",
          "name": "itemId",
          "type": "uint256"
        },
        {
          "indexed": true,
          "internalType": "address",
          "name": "nft",
          "type": "address"
        },
        {
          "indexed": false,
          "internalType": "uint256",
          "name": "tokenId",
          "type": "uint256"
        },
        {
          "indexed": false,
          "internalType": "uint256",
          "name": "price",
          "type": "uint256"
        },
        {
          "indexed": true,
          "internalType": "address",
          "name": "seller",
          "type": "address"
        },
        {
          "indexed": true,
          "internalType": "address",
          "name": "buyer",
          "type": "address"
        }
      ],
      "name": "Bought",
      "type": "event"
    },
    {
      "anonymous": false,
      "inputs": [
        {
          "indexed": false,
          "internalType": "address",
          "name": "Id",
          "type": "address"
        },
        {
          "indexed": false,
          "internalType": "string",
          "name": "name",
          "type": "string"
        },
        {
          "indexed": false,
          "internalType": "string",
          "name": "rapydId",
          "type": "string"
        },
        {
          "indexed": false,
          "internalType": "string",
          "name": "govtId",
          "type": "string"
        },
        {
          "indexed": false,
          "internalType": "string",
          "name": "location",
          "type": "string"
        },
        {
          "indexed": false,
          "internalType": "string",
          "name": "landarea",
          "type": "string"
        },
        {
          "indexed": false,
          "internalType": "string",
          "name": "contact",
          "type": "string"
        },
        {
          "indexed": false,
          "internalType": "string",
          "name": "iotid",
          "type": "string"
        }
      ],
      "name": "FarmerAdded",
      "type": "event"
    },
    {
      "anonymous": false,
      "inputs": [
        {
          "indexed": false,
          "internalType": "uint256",
          "name": "itemId",
          "type": "uint256"
        },
        {
          "indexed": true,
          "internalType": "address",
          "name": "nft",
          "type": "address"
        },
        {
          "indexed": false,
          "internalType": "uint256",
          "name": "tokenId",
          "type": "uint256"
        },
        {
          "indexed": false,
          "internalType": "uint256",
          "name": "price",
          "type": "uint256"
        },
        {
          "indexed": true,
          "internalType": "address",
          "name": "seller",
          "type": "address"
        }
      ],
      "name": "Offered",
      "type": "event"
    },
    {
      "inputs": [
        {
          "internalType": "address",
          "name": "_id",
          "type": "address"
        },
        {
          "internalType": "string",
          "name": "_name",
          "type": "string"
        },
        {
          "internalType": "string",
          "name": "_rapydId",
          "type": "string"
        },
        {
          "internalType": "string",
          "name": "_govtId",
          "type": "string"
        },
        {
          "internalType": "string",
          "name": "_location",
          "type": "string"
        },
        {
          "internalType": "string",
          "name": "_area",
          "type": "string"
        },
        {
          "internalType": "string",
          "name": "_contact",
          "type": "string"
        },
        {
          "internalType": "string",
          "name": "_iotid",
          "type": "string"
        }
      ],
      "name": "create_Farmer",
      "outputs": [],
      "stateMutability": "nonpayable",
      "type": "function"
    },
    {
      "inputs": [
        {
          "internalType": "address",
          "name": "",
          "type": "address"
        }
      ],
      "name": "farmers",
      "outputs": [
        {
          "internalType": "address",
          "name": "Id",
          "type": "address"
        },
        {
          "internalType": "string",
          "name": "name",
          "type": "string"
        },
        {
          "internalType": "string",
          "name": "rapydId",
          "type": "string"
        },
        {
          "internalType": "string",
          "name": "govtId",
          "type": "string"
        },
        {
          "internalType": "string",
          "name": "location",
          "type": "string"
        },
        {
          "internalType": "string",
          "name": "landarea",
          "type": "string"
        },
        {
          "internalType": "string",
          "name": "contact",
          "type": "string"
        },
        {
          "internalType": "string",
          "name": "iotid",
          "type": "string"
        }
      ],
      "stateMutability": "view",
      "type": "function"
    },
    {
      "inputs": [],
      "name": "feeAccount",
      "outputs": [
        {
          "internalType": "address payable",
          "name": "",
          "type": "address"
        }
      ],
      "stateMutability": "view",
      "type": "function"
    },
    {
      "inputs": [],
      "name": "feePercent",
      "outputs": [
        {
          "internalType": "uint256",
          "name": "",
          "type": "uint256"
        }
      ],
      "stateMutability": "view",
      "type": "function"
    },
    {
      "inputs": [
        {
          "internalType": "uint256",
          "name": "_itemId",
          "type": "uint256"
        }
      ],
      "name": "getTotalPrice",
      "outputs": [
        {
          "internalType": "uint256",
          "name": "",
          "type": "uint256"
        }
      ],
      "stateMutability": "view",
      "type": "function"
    },
    {
      "inputs": [],
      "name": "itemCount",
      "outputs": [
        {
          "internalType": "uint256",
          "name": "",
          "type": "uint256"
        }
      ],
      "stateMutability": "view",
      "type": "function"
    },
    {
      "inputs": [
        {
          "internalType": "uint256",
          "name": "",
          "type": "uint256"
        }
      ],
      "name": "items",
      "outputs": [
        {
          "internalType": "uint256",
          "name": "itemId",
          "type": "uint256"
        },
        {
          "internalType": "contract IERC721",
          "name": "nft",
          "type": "address"
        },
        {
          "internalType": "uint256",
          "name": "tokenId",
          "type": "uint256"
        },
        {
          "internalType": "uint256",
          "name": "price",
          "type": "uint256"
        },
        {
          "internalType": "address payable",
          "name": "seller",
          "type": "address"
        },
        {
          "internalType": "address",
          "name": "owner",
          "type": "address"
        },
        {
          "internalType": "bool",
          "name": "sold",
          "type": "bool"
        }
      ],
      "stateMutability": "view",
      "type": "function"
    },
    {
      "inputs": [
        {
          "internalType": "contract IERC721",
          "name": "_nft",
          "type": "address"
        },
        {
          "internalType": "uint256",
          "name": "_tokenId",
          "type": "uint256"
        },
        {
          "internalType": "uint256",
          "name": "_price",
          "type": "uint256"
        }
      ],
      "name": "makeItem",
      "outputs": [],
      "stateMutability": "nonpayable",
      "type": "function"
    },
    {
      "inputs": [
        {
          "internalType": "uint256",
          "name": "_itemId",
          "type": "uint256"
        }
      ],
      "name": "purchaseItem",
      "outputs": [],
      "stateMutability": "payable",
      "type": "function"
    }
  ],
  "bytecode": "0x60c06040523480156200001157600080fd5b5060405162001e0238038062001e0283398181016040528101906200003791906200009c565b60016000819055503373ffffffffffffffffffffffffffffffffffffffff1660808173ffffffffffffffffffffffffffffffffffffffff1660601b815250508060a0818152505050620000ec565b6000815190506200009681620000d2565b92915050565b600060208284031215620000af57600080fd5b6000620000bf8482850162000085565b91505092915050565b6000819050919050565b620000dd81620000c8565b8114620000e957600080fd5b50565b60805160601c60a051611cdf620001236000396000818161068a01526109540152600081816106600152610b340152611cdf6000f3fe6080604052600436106100865760003560e01c8063bfb231d211610059578063bfb231d214610150578063c5864d8114610193578063ca7dd375146101bc578063d38ea5bf146101f9578063fa00afc71461021557610086565b8063401b21681461008b57806365e17c9d146100cf5780636bfb0d01146100fa5780637fd6f15c14610125575b600080fd5b34801561009757600080fd5b506100b260048036038101906100ad919061120f565b61023e565b6040516100c698979695949392919061158f565b60405180910390f35b3480156100db57600080fd5b506100e461065e565b6040516100f1919061153d565b60405180910390f35b34801561010657600080fd5b5061010f610682565b60405161011c91906116de565b60405180910390f35b34801561013157600080fd5b5061013a610688565b60405161014791906116de565b60405180910390f35b34801561015c57600080fd5b50610177600480360381019061017291906113e1565b6106ac565b60405161018a97969594939291906116f9565b60405180910390f35b34801561019f57600080fd5b506101ba60048036038101906101b59190611238565b61075b565b005b3480156101c857600080fd5b506101e360048036038101906101de91906113e1565b61094e565b6040516101f091906116de565b60405180910390f35b610213600480360381019061020e91906113e1565b6109b1565b005b34801561022157600080fd5b5061023c60048036038101906102379190611392565b610d7c565b005b60036020528060005260406000206000915090508060000160009054906101000a900473ffffffffffffffffffffffffffffffffffffffff1690806001018054610287906119f8565b80601f01602080910402602001604051908101604052809291908181526020018280546102b3906119f8565b80156103005780601f106102d557610100808354040283529160200191610300565b820191906000526020600020905b8154815290600101906020018083116102e357829003601f168201915b505050505090806002018054610315906119f8565b80601f0160208091040260200160405190810160405280929190818152602001828054610341906119f8565b801561038e5780601f106103635761010080835404028352916020019161038e565b820191906000526020600020905b81548152906001019060200180831161037157829003601f168201915b5050505050908060030180546103a3906119f8565b80601f01602080910402602001604051908101604052809291908181526020018280546103cf906119f8565b801561041c5780601f106103f15761010080835404028352916020019161041c565b820191906000526020600020905b8154815290600101906020018083116103ff57829003601f168201915b505050505090806004018054610431906119f8565b80601f016020809104026020016040519081016040528092919081815260200182805461045d906119f8565b80156104aa5780601f1061047f576101008083540402835291602001916104aa565b820191906000526020600020905b81548152906001019060200180831161048d57829003601f168201915b5050505050908060050180546104bf906119f8565b80601f01602080910402602001604051908101604052809291908181526020018280546104eb906119f8565b80156105385780601f1061050d57610100808354040283529160200191610538565b820191906000526020600020905b81548152906001019060200180831161051b57829003601f168201915b50505050509080600601805461054d906119f8565b80601f0160208091040260200160405190810160405280929190818152602001828054610579906119f8565b80156105c65780601f1061059b576101008083540402835291602001916105c6565b820191906000526020600020905b8154815290600101906020018083116105a957829003601f168201915b5050505050908060070180546105db906119f8565b80601f0160208091040260200160405190810160405280929190818152602001828054610607906119f8565b80156106545780601f1061062957610100808354040283529160200191610654565b820191906000526020600020905b81548152906001019060200180831161063757829003601f168201915b5050505050905088565b7f000000000000000000000000000000000000000000000000000000000000000081565b60015481565b7f000000000000000000000000000000000000000000000000000000000000000081565b60026020528060005260406000206000915090508060000154908060010160009054906101000a900473ffffffffffffffffffffffffffffffffffffffff16908060020154908060030154908060040160009054906101000a900473ffffffffffffffffffffffffffffffffffffffff16908060050160009054906101000a900473ffffffffffffffffffffffffffffffffffffffff16908060050160149054906101000a900460ff16905087565b6040518061010001604052808973ffffffffffffffffffffffffffffffffffffffff16815260200188815260200187815260200186815260200185815260200184815260200183815260200182815250600360008a73ffffffffffffffffffffffffffffffffffffffff1673ffffffffffffffffffffffffffffffffffffffff16815260200190815260200160002060008201518160000160006101000a81548173ffffffffffffffffffffffffffffffffffffffff021916908373ffffffffffffffffffffffffffffffffffffffff160217905550602082015181600101908051906020019061084d9291906110c5565b50604082015181600201908051906020019061086a9291906110c5565b5060608201518160030190805190602001906108879291906110c5565b5060808201518160040190805190602001906108a49291906110c5565b5060a08201518160050190805190602001906108c19291906110c5565b5060c08201518160060190805190602001906108de9291906110c5565b5060e08201518160070190805190602001906108fb9291906110c5565b509050507ff9faf5efeeeab2eff9c87136bf9e47d09c58d087755b285ab22379ee455cc593888888888888888860405161093c98979695949392919061158f565b60405180910390a15050505050505050565b600060647f0000000000000000000000000000000000000000000000000000000000000000606461097f9190611811565b60026000858152602001908152602001600020600301546109a09190611898565b6109aa9190611867565b9050919050565b6109b961106b565b60006109c48261094e565b905060006002600084815260200190815260200160002090506000831180156109ef57506001548311155b610a2e576040517f08c379a0000000000000000000000000000000000000000000000000000000008152600401610a259061169e565b60405180910390fd5b81341015610a71576040517f08c379a0000000000000000000000000000000000000000000000000000000008152600401610a689061167e565b60405180910390fd5b8060050160149054906101000a900460ff1615610ac3576040517f08c379a0000000000000000000000000000000000000000000000000000000008152600401610aba9061163e565b60405180910390fd5b8060040160009054906101000a900473ffffffffffffffffffffffffffffffffffffffff1673ffffffffffffffffffffffffffffffffffffffff166108fc82600301549081150290604051600060405180830381858888f19350505050158015610b31573d6000803e3d6000fd5b507f000000000000000000000000000000000000000000000000000000000000000073ffffffffffffffffffffffffffffffffffffffff166108fc826003015484610b7c91906118f2565b9081150290604051600060405180830381858888f19350505050158015610ba7573d6000803e3d6000fd5b5060018160050160146101000a81548160ff021916908315150217905550338160050160006101000a81548173ffffffffffffffffffffffffffffffffffffffff021916908373ffffffffffffffffffffffffffffffffffffffff1602179055508060010160009054906101000a900473ffffffffffffffffffffffffffffffffffffffff1673ffffffffffffffffffffffffffffffffffffffff166323b872dd303384600201546040518463ffffffff1660e01b8152600401610c6d93929190611558565b600060405180830381600087803b158015610c8757600080fd5b505af1158015610c9b573d6000803e3d6000fd5b505050503373ffffffffffffffffffffffffffffffffffffffff168160040160009054906101000a900473ffffffffffffffffffffffffffffffffffffffff1673ffffffffffffffffffffffffffffffffffffffff168260010160009054906101000a900473ffffffffffffffffffffffffffffffffffffffff1673ffffffffffffffffffffffffffffffffffffffff167f8b4c9c8a607d67b321582dd8461041b1dc2ceeca70c8b7f37f8e02095cf2e76d8685600201548660030154604051610d6793929190611768565b60405180910390a45050610d796110bb565b50565b610d8461106b565b60008111610dc7576040517f08c379a0000000000000000000000000000000000000000000000000000000008152600401610dbe9061165e565b60405180910390fd5b60016000815480929190610dda90611a5b565b91905055508273ffffffffffffffffffffffffffffffffffffffff166323b872dd3330856040518463ffffffff1660e01b8152600401610e1c93929190611558565b600060405180830381600087803b158015610e3657600080fd5b505af1158015610e4a573d6000803e3d6000fd5b505050506040518060e0016040528060015481526020018473ffffffffffffffffffffffffffffffffffffffff1681526020018381526020018281526020013373ffffffffffffffffffffffffffffffffffffffff1681526020013373ffffffffffffffffffffffffffffffffffffffff168152602001600015158152506002600060015481526020019081526020016000206000820151816000015560208201518160010160006101000a81548173ffffffffffffffffffffffffffffffffffffffff021916908373ffffffffffffffffffffffffffffffffffffffff160217905550604082015181600201556060820151816003015560808201518160040160006101000a81548173ffffffffffffffffffffffffffffffffffffffff021916908373ffffffffffffffffffffffffffffffffffffffff16021790555060a08201518160050160006101000a81548173ffffffffffffffffffffffffffffffffffffffff021916908373ffffffffffffffffffffffffffffffffffffffff16021790555060c08201518160050160146101000a81548160ff0219169083151502179055509050503373ffffffffffffffffffffffffffffffffffffffff168373ffffffffffffffffffffffffffffffffffffffff167f655a0cf9c8db81512be9a76dc1c5ae5380b8816ce6ad659cd61b715e2999d59a600154858560405161105693929190611768565b60405180910390a36110666110bb565b505050565b600260005414156110b1576040517f08c379a00000000000000000000000000000000000000000000000000000000081526004016110a8906116be565b60405180910390fd5b6002600081905550565b6001600081905550565b8280546110d1906119f8565b90600052602060002090601f0160209004810192826110f3576000855561113a565b82601f1061110c57805160ff191683800117855561113a565b8280016001018555821561113a579182015b8281111561113957825182559160200191906001019061111e565b5b509050611147919061114b565b5090565b5b8082111561116457600081600090555060010161114c565b5090565b600061117b611176846117c4565b61179f565b90508281526020810184848401111561119357600080fd5b61119e8482856119b6565b509392505050565b6000813590506111b581611c64565b92915050565b6000813590506111ca81611c7b565b92915050565b600082601f8301126111e157600080fd5b81356111f1848260208601611168565b91505092915050565b60008135905061120981611c92565b92915050565b60006020828403121561122157600080fd5b600061122f848285016111a6565b91505092915050565b600080600080600080600080610100898b03121561125557600080fd5b60006112638b828c016111a6565b985050602089013567ffffffffffffffff81111561128057600080fd5b61128c8b828c016111d0565b975050604089013567ffffffffffffffff8111156112a957600080fd5b6112b58b828c016111d0565b965050606089013567ffffffffffffffff8111156112d257600080fd5b6112de8b828c016111d0565b955050608089013567ffffffffffffffff8111156112fb57600080fd5b6113078b828c016111d0565b94505060a089013567ffffffffffffffff81111561132457600080fd5b6113308b828c016111d0565b93505060c089013567ffffffffffffffff81111561134d57600080fd5b6113598b828c016111d0565b92505060e089013567ffffffffffffffff81111561137657600080fd5b6113828b828c016111d0565b9150509295985092959890939650565b6000806000606084860312156113a757600080fd5b60006113b5868287016111bb565b93505060206113c6868287016111fa565b92505060406113d7868287016111fa565b9150509250925092565b6000602082840312156113f357600080fd5b6000611401848285016111fa565b91505092915050565b61141381611938565b82525050565b61142281611926565b82525050565b6114318161194a565b82525050565b61144081611992565b82525050565b6000611451826117f5565b61145b8185611800565b935061146b8185602086016119c5565b61147481611b60565b840191505092915050565b600061148c601183611800565b915061149782611b71565b602082019050919050565b60006114af601f83611800565b91506114ba82611b9a565b602082019050919050565b60006114d2603383611800565b91506114dd82611bc3565b604082019050919050565b60006114f5601283611800565b915061150082611c12565b602082019050919050565b6000611518601f83611800565b915061152382611c3b565b602082019050919050565b61153781611988565b82525050565b6000602082019050611552600083018461140a565b92915050565b600060608201905061156d6000830186611419565b61157a6020830185611419565b611587604083018461152e565b949350505050565b6000610100820190506115a5600083018b611419565b81810360208301526115b7818a611446565b905081810360408301526115cb8189611446565b905081810360608301526115df8188611446565b905081810360808301526115f38187611446565b905081810360a08301526116078186611446565b905081810360c083015261161b8185611446565b905081810360e083015261162f8184611446565b90509998505050505050505050565b600060208201905081810360008301526116578161147f565b9050919050565b60006020820190508181036000830152611677816114a2565b9050919050565b60006020820190508181036000830152611697816114c5565b9050919050565b600060208201905081810360008301526116b7816114e8565b9050919050565b600060208201905081810360008301526116d78161150b565b9050919050565b60006020820190506116f3600083018461152e565b92915050565b600060e08201905061170e600083018a61152e565b61171b6020830189611437565b611728604083018861152e565b611735606083018761152e565b611742608083018661140a565b61174f60a0830185611419565b61175c60c0830184611428565b98975050505050505050565b600060608201905061177d600083018661152e565b61178a602083018561152e565b611797604083018461152e565b949350505050565b60006117a96117ba565b90506117b58282611a2a565b919050565b6000604051905090565b600067ffffffffffffffff8211156117df576117de611b31565b5b6117e882611b60565b9050602081019050919050565b600081519050919050565b600082825260208201905092915050565b600061181c82611988565b915061182783611988565b9250827fffffffffffffffffffffffffffffffffffffffffffffffffffffffffffffffff0382111561185c5761185b611aa4565b5b828201905092915050565b600061187282611988565b915061187d83611988565b92508261188d5761188c611ad3565b5b828204905092915050565b60006118a382611988565b91506118ae83611988565b9250817fffffffffffffffffffffffffffffffffffffffffffffffffffffffffffffffff04831182151516156118e7576118e6611aa4565b5b828202905092915050565b60006118fd82611988565b915061190883611988565b92508282101561191b5761191a611aa4565b5b828203905092915050565b600061193182611968565b9050919050565b600061194382611968565b9050919050565b60008115159050919050565b600061196182611926565b9050919050565b600073ffffffffffffffffffffffffffffffffffffffff82169050919050565b6000819050919050565b600061199d826119a4565b9050919050565b60006119af82611968565b9050919050565b82818337600083830152505050565b60005b838110156119e35780820151818401526020810190506119c8565b838111156119f2576000848401525b50505050565b60006002820490506001821680611a1057607f821691505b60208210811415611a2457611a23611b02565b5b50919050565b611a3382611b60565b810181811067ffffffffffffffff82111715611a5257611a51611b31565b5b80604052505050565b6000611a6682611988565b91507fffffffffffffffffffffffffffffffffffffffffffffffffffffffffffffffff821415611a9957611a98611aa4565b5b600182019050919050565b7f4e487b7100000000000000000000000000000000000000000000000000000000600052601160045260246000fd5b7f4e487b7100000000000000000000000000000000000000000000000000000000600052601260045260246000fd5b7f4e487b7100000000000000000000000000000000000000000000000000000000600052602260045260246000fd5b7f4e487b7100000000000000000000000000000000000000000000000000000000600052604160045260246000fd5b6000601f19601f8301169050919050565b7f6974656d20616c726561647920736f6c64000000000000000000000000000000600082015250565b7f5072696365206d7573742062652067726561746572207468616e207a65726f00600082015250565b7f6e6f7420656e6f75676820657468657220746f20636f766572206974656d207060008201527f7269636520616e64206d61726b65742066656500000000000000000000000000602082015250565b7f6974656d20646f65736e27742065786973740000000000000000000000000000600082015250565b7f5265656e7472616e637947756172643a207265656e7472616e742063616c6c00600082015250565b611c6d81611926565b8114611c7857600080fd5b50565b611c8481611956565b8114611c8f57600080fd5b50565b611c9b81611988565b8114611ca657600080fd5b5056fea2646970667358221220719edc586b15769a0ae77f1b7cd7c83763f8b113d2efe5be3006c80a3ede293c64736f6c63430008040033",
  "linkReferences": {},
  "deployedLinkReferences": {}
}